:100000001EC038C037C06EC235C034C033C032C025
:1000100031C030C02FC02FC072C02CC08EC22AC0C9
:1000200029C028C027C00A0D000A0D003A20004848
:10003000656C6C6F20576F726C640A0D00001124A0
:100040001FBECFE5D4E0DEBFCDBF10E0A0E6B0E03C
:10005000E6E6F6E002C005900D92A236B107D9F7A8
:1000600010E0A2E6B0E001C01D92A839B107E1F7A7
:100070005AD1F7C2C5CF1F920F920FB60F9211241B
:100080008F939F93EF93FF93DF93CF9300D000D094
:10009000CDB7DEB7EBE2F0E080818A83ECE2F0E0FE
:1000A00080818B838A8188718983809184008F5FAE
:1000B0008F708C83909185008C81891719F482E070
:1000C00089830BC08C81809384008C81882F90E081
:1000D000FC01EE58FF4F8B818083898180938600DD
:1000E0000F900F900F900F90CF91DF91FF91EF91B4
:1000F0009F918F910F900FBE0F901F9018951F9298
:100100000F920FB60F9211248F939F93AF93BF93CB
:10011000EF93FF93DF93CF930F92CDB7DEB790911C
:10012000820080918300981799F0809183008F5FFF
:100130008F708983898180938300ACE2B0E08981EC
:10014000882F90E0FC01EE59FF4F80818C9307C00F
:10015000AAE2B0E0EAE2F0E080818F7D8C930F901C
:10016000CF91DF91FF91EF91BF91AF919F918F91CF
:100170000F900FBE0F901F901895DF93CF9300D074
:10018000CDB7DEB79A8389831092820010928300E4
:10019000109284001092850089819A8199234CF4F1
:1001A000EBE2F0E082E0808389819A819F779A83F5
:1001B0008983E0E4F0E089819A81892F99278083FF
:1001C000E9E2F0E089818083EAE2F0E088E9808377
:1001D000E0E4F0E086E880830F900F90CF91DF910C
:1001E0000895DF93CF9300D000D0CDB7DEB79091C4
:1001F000840080918500981729F480E091E09C8329
:100200008B831DC0809185008F5F8F708A838A8168
:10021000809385008A81882F90E0FC01EE58FF4F83
:100220008081898380918600882F90E0382F222753
:100230008981882F90E0820F931F9C838B838B8111
:100240009C810F900F900F900F90CF91DF910895A8
:10025000DF93CF9300D0CDB7DEB78A838091820041
:100260008F5F8F7089839091830089818917D9F37B
:100270008981882F90E0FC01EE59FF4F8A818083AD
:10028000898180938200AAE2B0E0EAE2F0E0808116
:1002900080628C930F900F90CF91DF910895DF9340
:1002A000CF9300D0CDB7DEB79A8389830BC0E981A5
:1002B000FA818081282F89819A8101969A83898386
:1002C000822FC6DFE981FA818081882381F70F9030
:1002D0000F90CF91DF910895DF93CF9300D000D09E
:1002E00000D0CDB7DEB79D838C8302C08E81B0DF96
:1002F0008C819D819B838A838C819D8101969D83C6
:100300008C83EA81FB818491898389818E838E81AC
:10031000882361F726960FB6F894DEBF0FBECDBFD7
:10032000CF91DF910895DF93CF93CDB7DEB7A99733
:100330000FB6F894DEBF0FBECDBF80E390E0A0E023
:10034000B0E08A879B87AC87BD878CE0FE013E9634
:10035000DF01982F1D929A95E9F780E390E0A0E0E5
:10036000B0E08A8F9B8FAC8FBD8F8CE0FE017E96B4
:10037000DF01982F1D929A95E9F788EE93E0A0E0AF
:10038000B0E08E839F83A887B9871982A7E3B0E086
:10039000E7E3F0E0808181608C93A8E3B0E0E8E3DC
:1003A000F0E0808181608C9387E690E0E6DEE5E412
:1003B000F0E08CE08083E3E4F0E089EF8083E9E51E
:1003C000F0E080E88083E7E2F0E080E48083E6E22A
:1003D000F0E087E08083A6E2B0E0E6E2F0E0808132
:1003E00088688C937894A6E2B0E0E6E2F0E0808141
:1003F00080648C938FE290E06FDF80919400909105
:100400009500A0919600B09197008A839B83AC835E
:10041000BD832091940030919500409196005091B9
:1004200097008A819B81AC81BD81281B390B4A0BC7
:100430005B0B8E819F81A885B985281739074A07EC
:100440005B0739F719822AC08981882F90E09E01C5
:10045000265E3F4FB9014AE050E0CBD0CE014A962C
:100460001EDF8CE290E038DF8981882F90E0880FD2
:10047000991FFC01E857FF4F808191819E01265E04
:100480003F4FB9014AE050E0B4D0CE014A9607DFB1
:1004900089E290E021DF89818F5F898389818630BD
:1004A00098F286E290E018DF809194009091950098
:1004B000A0919600B09197008A839B83AC83BD8303
:1004C00081E080936000A6E2B0E0E6E2F0E08081A7
:1004D00080648C93A8E3B0E0E8E3F0E080818E7F55
:1004E0008C9397CF1F920F920FB60F9211248F9378
:1004F0009F93AF93BF93DF93CF93CDB7DEB7809138
:10050000940090919500A0919600B091970001966B
:10051000A11DB11D8093940090939500A093960027
:10052000B0939700CF91DF91BF91AF919F918F9141
:100530000F900FBE0F901F9018951F920F920FB63D
:100540000F9211242F933F934F938F939F93AF93C9
:10055000BF93EF93FF93DF93CF930F92CDB7DEB7A7
:1005600080916000813029F540918700842F90E0D0
:10057000E4E2F0E020813181880F991FFC01E85707
:10058000FF4F31832083842F8F5F80938700A7E202
:10059000B0E0E7E2F0E08081982F907F80918700C3
:1005A000892B8C93A6E2B0E0E6E2F0E080818064E3
:1005B0008C9380918700863020F0109287001092F3
:1005C0006000A8E3B0E0E8E3F0E0808181608C9314
:1005D0000F90CF91DF91FF91EF91BF91AF919F91DC
:1005E0008F914F913F912F910F900FBE0F901F90C1
:1005F0001895FB019F0142306CF045325CF4642F8A
:1006000077271BD0805D8A330CF0895D8193CB0105
:100610000097A9F71082C90100C0DC01FC01672F17
:1006200071917723E1F7329704C07C916D937083C9
:100630006291AE17BF07C8F30895AA1BBB1B51E117
:1006400007C0AA1FBB1FA617B70710F0A61BB70B42
:10065000881F991F5A95A9F780959095BC01CD01E7
:060660000895F894FFCF9D
:02066600010091
:00000001FF
