:100000009FC0B9C0B8C09BC1B6C0B5C0B4C0B3C072
:10001000B2C0B1C0B0C0B0C0D9C0ADC059C1ABC092
:10002000AAC0A9C0A8C048656C6C6F20576F726CDD
:10003000640A0D000A0D0A0D003A20000A0D000A9C
:100040000D003A200000407A10F35A00A0724E18BA
:10005000090010A5D4E80000E87648170000E40B7A
:1000600054020000CA9A3B000000E1F50500008040
:10007000969800000040420F000000A0860100009A
:1000800000102700000000E80300000000640000EA
:100090000000000A00000000000100000000002C29
:1000A00076D888DC674F0823DFC1DFAE59E1B1B7EE
:1000B00096E5E3E453C63AE651997696E8E6C284BB
:1000C00026EB898C9B62ED407C6FFCEFBC9C9F40D3
:1000D000F2BAA56FA5F490055A2AF75C936B6CF9F8
:1000E000676DC11BFCE0E40D47FEF520E6B500D0CE
:1000F000ED902E0300943577050080841E080000E3
:10010000204E0A000000C80C333333330F986E12B0
:10011000831141EF8D2114893BE65516CFFEE6DBB6
:1001200018D1844B381BF77C1D901DA4BBE4242000
:100130003284725E228100C9F124ECA1E53D2700E2
:1001400011241FBECFE5D4E0DEBFCDBF11E0A0E695
:10015000B0E0EEE0F1E102C005900D92AA36B107E1
:10016000D9F711E0AAE6B1E001C01D92A03AB107AB
:10017000E1F7CCD1CAC744CF1F920F920FB60F92AE
:1001800011242F938F939F93EF93FF939BB12CB1E7
:10019000E0918C01EF5FEF7080918D01E81711F411
:1001A00082E008C0892F8871E0938C01F0E0E65866
:1001B000FE4F208380938E01FF91EF919F918F914D
:1001C0002F910F900FBE0F901F9018951F920F92B6
:1001D0000FB60F9211248F939F93EF93FF939091FB
:1001E0008A0180918B01981761F0E0918B01EF5F9C
:1001F000EF70E0938B01F0E0E659FE4F80818CB9FF
:1002000001C05598FF91EF919F918F910F900FBE74
:100210000F901F9018959C0110928A0110928B01EB
:1002200010928C0110928D0197FF03C082E08BB970
:100230003F7730BD29B988E98AB986E880BD08953D
:1002400090918C0180918D01981719F420E031E094
:1002500012C0E0918D01EF5FEF70E0938D01F0E04F
:10026000E658FE4F308120918E01922F80E0AC0144
:10027000430F511D9A01C9010895282F90918A01B9
:100280009F5F9F7080918B019817E1F3E92FF0E059
:10029000E659FE4F208390938A01559A0895CF9393
:1002A000DF93EC0102C02196E8DF88818823D9F72B
:1002B000DF91CF910895CF93DF93EC0101C0DDDF93
:1002C000FE01219684918823D1F7DF91CF91089583
:1002D0001F920F920FB60F9211242F933F938F937B
:1002E0009F93EF93FF93809160008130E1F48091C0
:1002F0008F01E82FF0E024B135B1EE0FFF1FE0577A
:10030000FE4F318320838F5F80938F01863020F0F2
:1003100010928F011092600087B1807F90918F01C1
:10032000892B87B9369AC09AFF91EF919F918F914F
:100330003F912F910F900FBE0F901F9018951F9215
:100340000F920FB60F9211248F939F93AF93BF9389
:1003500080919C0190919D01A0919E01B0919F017F
:100360000196A11DB11D80939C0190939D01A093C6
:100370009E01B0939F01BF91AF919F918F910F907C
:100380000FBE0F901F901895FF920F931F93DF934E
:10039000CF93CDB7DEB760970FB6F894DEBF0FBE30
:1003A000CDBFF82E80E390E0A0E0B0E089839A838F
:1003B000AB83BC83FE0135968CE0DF011D928A95EC
:1003C000E9F78F2D90E08E010F5F1F4FB8014AE0D3
:1003D00050E02CD4C80163DF89E390E06CDFEF2D9F
:1003E000F0E0EE0FFF1FE057FE4F80819181B801D2
:1003F0004AE050E01BD4C80152DF84E390E05BDFA9
:1004000060960FB6F894DEBF0FBECDBFCF91DF91DF
:100410001F910F91FF900895CF92DF92EF92FF927C
:100420000F931F93DF93CF93CDB7DEB760970FB6CF
:10043000F894DEBF0FBECDBF80E390E0A0E0B0E057
:1004400089839A83AB83BC83FE0135968CE0DF0100
:100450001D928A95E9F7EE24FF246E010894C11CD1
:10046000D11CC701B6014AE050E0E0D3C60117DF56
:1004700082E490E020DFF701EE0FFF1FE057FE4F10
:1004800020813181B901660F771F660F771F620FD8
:10049000731F80E090E062D120E030E040E85AE352
:1004A00068D041E025E08601A1D3C601F8DE8FE3E4
:1004B00090E001DF0894E11CF11CB6E0EB16F104BA
:1004C00081F68CE390E0F7DE60960FB6F894DEBF1D
:1004D0000FBECDBFCF91DF911F910F91FF90EF9095
:1004E000DF90CF900895B89AC09A87E690E093DEA7
:1004F0008CE085BD89EF83BD80E889BF80E487B942
:1005000087E086B986B1886886B908951F93EBDFC6
:100510007894369A86E290E0CEDE20919C0130916C
:100520009D0140919E0150919F0187B1807F846021
:1005300087B911E080919C0190919D01A0919E014D
:10054000B0919F01821B930BA40BB50B885E934067
:10055000A040B04079F760DF20919C0130919D016F
:1005600040919E0150919F0110936000369AC0986F
:10057000E1CFA0E2B0E0EEEBF2E001C369837A8361
:100580008B839C832D833E834F835887CE010196B6
:10059000BE01675F7F4F7BD2CE010596BE016F5EC5
:1005A0007F4F75D29985923088F089898230C8F062
:1005B000943019F4823051F404C0843029F492301C
:1005C00081F481E690E0C6C0923049F420E09A853B
:1005D0008A89981321E02A87CE010996BBC0823010
:1005E00049F420E09A858A89981321E02A8BCE016C
:1005F0004196B0C02D843E844F8458886D887E8893
:100600008F88988CEE24FF248701AA24BB246501DF
:1006100040E050E060E070E0E0E0F0E0C1018170B7
:100620009070892BE9F0E60CF71C081D191D9A0142
:10063000AB012A0D3B1D4C1D5D1D80E090E0A0E04C
:10064000B0E0E614F7040805190520F481E090E015
:10065000A0E0B0E0BA01A901480F591F6A1F7B1F33
:10066000AA0CBB1CCC1CDD1C97FE08C081E090E0EE
:10067000A0E0B0E0A82AB92ACA2ADB2A3196E032E3
:10068000F10549F0660C771C881C991C5694479418
:1006900037942794C3CFFA85EA892B893C898B85C7
:1006A0009C85280F391F2E5F3F4F17C0CA018170EC
:1006B0009070892B61F016950795F794E79480E088
:1006C00090E0A0E0B0E8E82AF92A0A2B1B2B7695E7
:1006D0006795579547952F5F3F4F77FDE7CF0CC044
:1006E000440F551F661F771F17FD4160EE0CFF1C5E
:1006F000001F111F21503040403090E0590790E01A
:10070000690790E4790760F32B8F3C8FDB01CA0106
:100710008F779070A070B07080349105A105B105FD
:1007200061F447FD0AC0E114F1040105110529F047
:10073000405C5F4F6F4F7F4F40781A8EFE1711F06D
:1007400081E08A8F4D8F5E8F6F8F78A383E0898FD2
:10075000CE014996C7D0A096E2E12DC2A8E0B0E054
:10076000E3EBF3E014C27B018C0161157105810597
:10077000910519F482E089835FC083E089838EE16B
:10078000C82ED12CDC82CB82ED82FE820F831887AB
:10079000C801B70158D0FC013197F7FF3BC02227B1
:1007A00033272E1B3F0B57016801022E04C0D6943D
:1007B000C794B794A7940A94D2F740E050E060E061
:1007C00070E081E090E0A0E0B0E004C0880F991FE5
:1007D000AA1FBB1F2A95D2F70197A109B1098E2143
:1007E0009F21A023B1230097A105B10521F041E08D
:1007F00050E060E070E04A295B296C297D294D8337
:100800005E836F8378878EE190E08E1B9F0B9C83C5
:100810008B8312C0309781F00E2E04C0EE0CFF1CAB
:10082000001F111F0A94D2F7ED82FE820F831887F2
:10083000CE1ADF0ADC82CB821A82CE01019652D018
:100840002896EAE0C0C1EF92FF920F931F937B01BD
:100850008C0180E0E81680E0F80681E0080780E07F
:10086000180788F48FEFE816F1040105110531F03F
:1008700028F088E090E0A0E0B0E017C080E090E0D1
:10088000A0E0B0E012C080E0E81680E0F80680E06A
:10089000080781E0180728F088E190E0A0E0B0E0C8
:1008A00004C080E190E0A0E0B0E020E230E040E071
:1008B00050E0281B390B4A0B5B0B04C016950795BB
:1008C000F794E7948A95D2F7F701E759FF4F8081B3
:1008D000281B310941095109C9011F910F91FF904E
:1008E000EF900895DF92EF92FF920F931F93FC0118
:1008F000E480F58006811781D1808081823048F4C0
:1009000080E090E0A0E1B0E0E82AF92A0A2B1B2B56
:10091000A5C0843009F49FC0823021F4EE24FF2466
:10092000870105C0E114F1040105110519F4E0E0A7
:10093000F0E096C0628173819FEF623879070CF016
:100940005BC022E83FEF261B370B2A3131052CF024
:1009500020E030E040E050E02AC0B801A701022EBC
:1009600004C076956795579547950A94D2F781E02C
:1009700090E0A0E0B0E004C0880F991FAA1FBB1F41
:100980002A95D2F70197A109B1098E219F21A023B1
:10099000B1230097A105B10521F081E090E0A0E02E
:1009A000B0E09A01AB01282B392B4A2B5B2BDA01E3
:1009B000C9018F779070A070B07080349105A10547
:1009C000B10539F427FF09C0205C3F4F4F4F5F4FFF
:1009D00004C0215C3F4F4F4F5F4FE0E0F0E020301C
:1009E000A0E03A07A0E04A07A0E45A0710F0E1E0CF
:1009F000F0E079018A0127C06038710564F5FB01D8
:100A0000E158FF4FD801C7018F779070A070B07088
:100A100080349105A105B10539F4E7FE0DC080E4ED
:100A200090E0A0E0B0E004C08FE390E0A0E0B0E090
:100A3000E80EF91E0A1F1B1F17FF05C01695079524
:100A4000F794E794319687E016950795F794E79425
:100A50008A95D1F705C0EE24FF248701EFEFF0E07F
:100A60006E2F679566276795902F9F77D794DD2423
:100A7000D7948E2F8695492F462B582F5D29B70185
:100A8000CA011F910F91FF90EF90DF900895FC0134
:100A9000DB01408151812281622F6F7770E0221F3C
:100AA0002227221F9381892F880F822B282F30E045
:100AB000991F9927991F11969C931197211531051C
:100AC000A9F5411551056105710511F482E037C0A2
:100AD00082E89FEF13969C938E9312979A01AB0135
:100AE00067E0220F331F441F551F6A95D1F783E03B
:100AF0008C930DC0220F331F441F551F12968D91EA
:100B00009C911397019713969C938E931297203084
:100B100080E0380780E0480780E4580758F31496CF
:100B20002D933D934D935C93179708952F3F310577
:100B300079F4411551056105710519F484E08C9330
:100B4000089564FF03C081E08C9312C01C9210C012
:100B50002F57304013963C932E93129783E08C933B
:100B600087E0440F551F661F771F8A95D1F7706481
:100B700014964D935D936D937C93179708952F92E0
:100B80003F924F925F926F927F928F929F92AF921D
:100B9000BF92CF92DF92EF92FF920F931F93CF936A
:100BA000DF93CDB7DEB7CA1BDB0B0FB6F894DEBF01
:100BB0000FBECDBF09942A88398848885F846E8427
:100BC0007D848C849B84AA84B984C884DF80EE8071
:100BD000FD800C811B81AA81B981CE0FD11D0FB67A
:100BE000F894DEBF0FBECDBFED010895EF92FF92E6
:100BF0000F931F93F22FF02E47FD02C0E4E001C0D7
:100C0000E4E1242F332727FD309537FF03C03095CB
:100C100021953F4F4F2D512F0F2FEE2E1BD08F2D93
:100C2000912F1F910F91FF90EF900895FB019F016D
:100C300042306CF045325CF4642F772752D2805DED
:100C40008A330CF0895D8193CB010097A9F710825C
:100C5000C90137C2A9E0B0E0EFE2F6E094CF6A0143
:100C6000122FA02EBE2C2BE3201718F42CE3922E6B
:100C700002C0902E9394AE014F5F5F4F27E0092D85
:100C800048D1BC018981E82EFF24C701897090708A
:100C9000019711F4ADE209C0B1FE02C0ABE205C09C
:100CA000B0FC02C0A0E001C0A0E2E3FE3BC0AA236A
:100CB00011F423E001C024E0211710F020E002C06D
:100CC000121B212FEB2CB4FE02C0322F0AC0F601FA
:100CD000322F80E202C0819331503323E1F7C20EFC
:100CE000D11CAA2319F0F601A1936F01F6013196E8
:100CF000E2FE05C09EE4D6019C9381E404C09EE61A
:100D0000D6019C9381E611968C9391833296DF01F4
:100D1000832F90E202C09D9381508823E1F7E30F77
:100D2000F11D40C0E2FE42C0AA2311F423E001C03D
:100D300024E0211710F020E002C0121B212FEB2C21
:100D4000B4FE02C0922F0AC0F601922F80E202C0C8
:100D5000819391509923E1F7C20ED11CAA2319F077
:100D6000F601A1936F01F6013196E2FE08C089E415
:100D7000D6018C938EE411968C9386E407C089E6A5
:100D8000D6018C938EE611968C9386E681833296FB
:100D9000DF01892F20E202C02D9381508823E1F7E3
:100DA000E90FF11D10822EEF3FEFAFC016161706A8
:100DB0001CF041E050E003C0AB014F5F5F4FAA2041
:100DC00019F480E090E003C08A2D90E0019620E0C5
:100DD00030E0AA2311F021E030E0240F351F280F66
:100DE000391F812F90E02817390714F020E002C046
:100DF000121B212F4B2D50E0CA0180719070B4FC62
:100E00000DC0B3FC0BC0F601322F40E202C041938B
:100E100031503323E1F7C20ED11C01C0322FAA2377
:100E200019F0F601A1936F01892B11F0132F0AC05D
:100E3000F601132F80E302C0819311501123E1F7D3
:100E4000C30ED11C092D060FBA8090E1892E912C7A
:100E50008E209F20E4FE04C0F1E3BF1609F4015088
:100E6000101614F001E003C0093008F008E09B01FF
:100E700077FF02C020E030E0CB010196821B930B8C
:100E8000FE013196E80FF91F8EE2F82E3B01601A41
:100E900071088A2D90E044275527481B590B8FEF86
:100EA0002F3F380719F4D601FD926D0162177307C1
:100EB0002CF06216730614F4808101C080E3215087
:100EC000304031962417350724F0D6018D936D01FB
:100ED000E6CF2617370749F4B5E3BB1528F0BB1654
:100EE00021F48114910409F481E3F6018193D60180
:100EF000812F90E202C09C93815011968823D9F7EC
:100F0000E10FF11D108220E030E0C9012996EEE0EA
:100F100056CE283008F027E03327DA01990F311D2B
:100F200087FD916000966105710539F432602E5F8E
:100F30003D9330E32A95E1F708959F3F30F08038E4
:100F40007105610509F03C5F3C5F3D93913008F00D
:100F50008068911DDF93CF931F930F93FF92EF92C1
:100F6000192F987F9695E92F96959695E90FFF276B
:100F7000E156FF4F99273327EE24FF24A701E7010D
:100F800005900894079428F4360FE71EF81E491FB1
:100F9000511D660F771F881F991F0694A1F70590B2
:100FA000079428F4E70EF81E491F561FC11D770F3E
:100FB000881F991F661F0694A1F70590079428F4CF
:100FC000F80E491F561FC71FD11D880F991F661F96
:100FD000771F0694A1F70590079420F4490F561F38
:100FE000C71FD81F990F661F771F881F0694A9F780
:100FF00084911095177041F0D695C79557954795F0
:10100000F794E7941A95C1F7E5E4F0E06894159039
:10101000159135916591959105907FE27395E11851
:10102000F10A430B560BC90BD009C0F7E10CF11EB6
:10103000431F561FC91FD01D7EF4703311F48A95CB
:10104000E6CFE894015030F0080F0AF400270217A9
:1010500008F4202F2395022F7A3328F079E37D932B
:101060002A95E9F710C07D932A9589F606949795FD
:101070006795379517951794E118F10A430B560BAE
:10108000C90BD00998F023957E9173957A3308F0B7
:1010900070E37C932013B8F77E9170617D9330F0FC
:1010A000839571E37D9370E32A95E1F71124EF9026
:1010B000FF900F911F91CF91DF91992787FD909518
:1010C0000895DC01FC01672F71917723E1F73297D6
:1010D00004C07C916D9370836291AE17BF07C8F313
:1010E0000895AA1BBB1B51E107C0AA1FBB1FA6176F
:1010F000B70710F0A61BB70B881F991F5A95A9F7C1
:0E11000080959095BC01CD010895F894FFCF25
:10110E0001000000000000000000010202030303C2
:10111E00030404040404040404050505050505057B
:10112E00050505050505050505060606060606065A
:10113E000606060606060606060606060606060641
:10114E00060606060606060606070707070707072A
:10115E000707070707070707070707070707070711
:10116E000707070707070707070707070707070701
:10117E0007070707070707070707070707070707F1
:10118E0007070707070707070708080808080808DA
:10119E0008080808080808080808080808080808C1
:1011AE0008080808080808080808080808080808B1
:1011BE0008080808080808080808080808080808A1
:1011CE000808080808080808080808080808080891
:1011DE000808080808080808080808080808080881
:1011EE000808080808080808080808080808080871
:1011FE000808080808080808080808080808080861
:0A120E00080808080808080808008E
:00000001FF
