:1000000012C021C020C01FC01EC01DC01CC01BC00C
:100010001AC019C018C017C016C015C014C013C02C
:1000200012C011C010C011241FBECFE5D4E0DEBF46
:10003000CDBF10E0A0E6B0E001C01D92AA36B10726
:10004000E1F702D050C2DCCFDF93CF93CDB7DEB75C
:10005000FFCFDF93CF93CDB7DEB7A2E3B0E0E0E30D
:10006000F0E0808180788C93CF91DF910895DF93C9
:10007000CF930F92CDB7DEB7E0E3F0E08081E2E30B
:10008000F0E010820F90CF91DF910895DF93CF932E
:10009000CDB7DEB7C956D0400FB6F894DEBF0FBE5D
:1000A000CDBFFE01EB59FF4F91838083FE01E959DB
:1000B000FF4F71836083FE01E759FF4F4083FE01CC
:1000C000E959FF4F0190F081E02D808191810097E7
:1000D000F1F41C821B8216C0FE01E959FF4F01900A
:1000E000F081E02D208131818B819C81880F991FC7
:1000F000F901E80FF91F118210828B819C81019612
:100100009C838B838B819C81863091052CF3FE012F
:10011000EB59FF4F0190F081E02D80819181009794
:1001200069F5FE01EB59FF4F0190F081E02D8081D0
:100130009181009709F43FC11C821B821AC0FE0105
:10014000EB59FF4F0190F081E02D208131818B81AF
:100150009C81880F991FF901E80FF91F80916800B1
:1001600090916900918380838B819C8101969C830F
:100170008B838B819C81863091050CF31A821982C6
:1001800088C01C821B827AC089819A810097E9F01D
:100190008B819C819C01220F331FCE010196820F1F
:1001A000931FFC01B496408151818B819C819C01FD
:1001B000220F331FCE010196820F931FFC0134964C
:1001C0008081918148175907D0F46B817C818B81A4
:1001D0009C819C01220F331FCE010196820F931F39
:1001E000FC013496408151819B01220F331FCE01C7
:1001F0000196820F931FFC01B4965183408389813D
:100200009A810097E1F08B819C819E012B5B3F4F8F
:10021000880F991FF901E80FF91F408151818B81E7
:100220009C819C01220F331FCE010196820F931FE8
:10023000FC0134968081918184179507D0F46B81FD
:100240007C818B819C819C01220F331FCE01019602
:10025000820F931FFC013496408151819E012B5BDC
:100260003F4FCB01880F991FF901E80FF91F518308
:1002700040838B819C8101969C838B838B819C81A5
:10028000863091050CF480CF89819A8101969A83FA
:10029000898389819A818A3091050CF472CF1C82FE
:1002A0001B8283C08B819C819E012B5B3F4F880FFB
:1002B000991FF901E80FF91F40815181FE01E959A9
:1002C000FF4F0190F081E02D208131818B819C8155
:1002D000880F991FF901E80FF91F80819181841718
:1002E0009507F0F4FE01E959FF4F0190F081E02DF0
:1002F000208131818B819C81880F991FD901A80FA2
:10030000B91F8B819C819E012B5B3F4F880F991FEA
:10031000F901E80FF91F8081918111969C938E93CA
:100320008B819C819C01220F331FCE010196820F8D
:10033000931FFC01B49640815181FE01EB59FF4FA0
:100340000190F081E02D208131818B819C81880F8B
:10035000991FF901E80FF91F80819181481759070A
:10036000F8F4FE01EB59FF4F0190F081E02D208160
:1003700031818B819C81880F991FD901A80FB91FEA
:100380008B819C819C01220F331FCE010196820F2D
:10039000931FFC01B4968081918111969C938E935A
:1003A0008B819C8101969C838B838B819C81863081
:1003B00091050CF477CFC759DF4F0FB6F894DEBF25
:1003C0000FBECDBFCF91DF910895DF93CF930F92F2
:1003D000CDB7DEB719825BC080916000909161005B
:1003E000009791F020916000309161008981882F01
:1003F00090E0880F991FF901E80FF91F80916800BC
:100400009091690091838083809164009091650050
:10041000009791F020916400309165008981882FC8
:1004200090E0880F991FF901E80FF91F809168008B
:100430009091690091838083809162009091630024
:10044000009771F020916200309163008981882FBC
:1004500090E0880F991FF901E80FF91F11821082AF
:100460008091660090916700009771F0209166007E
:10047000309167008981882F90E0880F991FF901DA
:10048000E80FF91F1182108289818F5F898389812A
:10049000863008F4A1CF0F90CF91DF910895DF93BC
:1004A000CF930F92CDB7DEB789838981823019F05F
:1004B0008981813039F480E690E022E630E0B901AC
:1004C00041E0E4DD8981823019F08981882339F4A3
:1004D00084E690E026E630E0B90140E0D7DD0F90F9
:0A04E000CF91DF910895F894FFCF4B
:00000001FF
